{
  "_format": "hh-sol-artifact-1",
  "contractName": "WheatInvoice",
  "sourceName": "contracts/wheatInvoice.sol",
  "abi": [
    {
      "inputs": [],
      "stateMutability": "nonpayable",
      "type": "constructor"
    },
    {
      "inputs": [
        {
          "internalType": "address",
          "name": "sender",
          "type": "address"
        },
        {
          "internalType": "uint256",
          "name": "tokenId",
          "type": "uint256"
        },
        {
          "internalType": "address",
          "name": "owner",
          "type": "address"
        }
      ],
      "name": "ERC721IncorrectOwner",
      "type": "error"
    },
    {
      "inputs": [
        {
          "internalType": "address",
          "name": "operator",
          "type": "address"
        },
        {
          "internalType": "uint256",
          "name": "tokenId",
          "type": "uint256"
        }
      ],
      "name": "ERC721InsufficientApproval",
      "type": "error"
    },
    {
      "inputs": [
        {
          "internalType": "address",
          "name": "approver",
          "type": "address"
        }
      ],
      "name": "ERC721InvalidApprover",
      "type": "error"
    },
    {
      "inputs": [
        {
          "internalType": "address",
          "name": "operator",
          "type": "address"
        }
      ],
      "name": "ERC721InvalidOperator",
      "type": "error"
    },
    {
      "inputs": [
        {
          "internalType": "address",
          "name": "owner",
          "type": "address"
        }
      ],
      "name": "ERC721InvalidOwner",
      "type": "error"
    },
    {
      "inputs": [
        {
          "internalType": "address",
          "name": "receiver",
          "type": "address"
        }
      ],
      "name": "ERC721InvalidReceiver",
      "type": "error"
    },
    {
      "inputs": [
        {
          "internalType": "address",
          "name": "sender",
          "type": "address"
        }
      ],
      "name": "ERC721InvalidSender",
      "type": "error"
    },
    {
      "inputs": [
        {
          "internalType": "uint256",
          "name": "tokenId",
          "type": "uint256"
        }
      ],
      "name": "ERC721NonexistentToken",
      "type": "error"
    },
    {
      "inputs": [
        {
          "internalType": "address",
          "name": "owner",
          "type": "address"
        }
      ],
      "name": "OwnableInvalidOwner",
      "type": "error"
    },
    {
      "inputs": [
        {
          "internalType": "address",
          "name": "account",
          "type": "address"
        }
      ],
      "name": "OwnableUnauthorizedAccount",
      "type": "error"
    },
    {
      "anonymous": false,
      "inputs": [
        {
          "indexed": true,
          "internalType": "address",
          "name": "owner",
          "type": "address"
        },
        {
          "indexed": true,
          "internalType": "address",
          "name": "approved",
          "type": "address"
        },
        {
          "indexed": true,
          "internalType": "uint256",
          "name": "tokenId",
          "type": "uint256"
        }
      ],
      "name": "Approval",
      "type": "event"
    },
    {
      "anonymous": false,
      "inputs": [
        {
          "indexed": true,
          "internalType": "address",
          "name": "owner",
          "type": "address"
        },
        {
          "indexed": true,
          "internalType": "address",
          "name": "operator",
          "type": "address"
        },
        {
          "indexed": false,
          "internalType": "bool",
          "name": "approved",
          "type": "bool"
        }
      ],
      "name": "ApprovalForAll",
      "type": "event"
    },
    {
      "anonymous": false,
      "inputs": [
        {
          "indexed": true,
          "internalType": "address",
          "name": "previousOwner",
          "type": "address"
        },
        {
          "indexed": true,
          "internalType": "address",
          "name": "newOwner",
          "type": "address"
        }
      ],
      "name": "OwnershipTransferred",
      "type": "event"
    },
    {
      "anonymous": false,
      "inputs": [
        {
          "indexed": true,
          "internalType": "address",
          "name": "from",
          "type": "address"
        },
        {
          "indexed": true,
          "internalType": "address",
          "name": "to",
          "type": "address"
        },
        {
          "indexed": true,
          "internalType": "uint256",
          "name": "tokenId",
          "type": "uint256"
        }
      ],
      "name": "Transfer",
      "type": "event"
    },
    {
      "anonymous": false,
      "inputs": [
        {
          "indexed": true,
          "internalType": "uint256",
          "name": "invoiceId",
          "type": "uint256"
        },
        {
          "indexed": true,
          "internalType": "address",
          "name": "baker",
          "type": "address"
        }
      ],
      "name": "WheatAccepted",
      "type": "event"
    },
    {
      "anonymous": false,
      "inputs": [
        {
          "indexed": true,
          "internalType": "uint256",
          "name": "invoiceId",
          "type": "uint256"
        },
        {
          "indexed": true,
          "internalType": "uint256",
          "name": "orderId",
          "type": "uint256"
        },
        {
          "indexed": true,
          "internalType": "address",
          "name": "baker",
          "type": "address"
        },
        {
          "indexed": false,
          "internalType": "uint256",
          "name": "quantity",
          "type": "uint256"
        },
        {
          "indexed": false,
          "internalType": "uint256",
          "name": "price",
          "type": "uint256"
        }
      ],
      "name": "WheatShipped",
      "type": "event"
    },
    {
      "inputs": [
        {
          "internalType": "uint256",
          "name": "invoiceId",
          "type": "uint256"
        }
      ],
      "name": "acceptWheat",
      "outputs": [],
      "stateMutability": "nonpayable",
      "type": "function"
    },
    {
      "inputs": [
        {
          "internalType": "address",
          "name": "to",
          "type": "address"
        },
        {
          "internalType": "uint256",
          "name": "tokenId",
          "type": "uint256"
        }
      ],
      "name": "approve",
      "outputs": [],
      "stateMutability": "nonpayable",
      "type": "function"
    },
    {
      "inputs": [
        {
          "internalType": "address",
          "name": "owner",
          "type": "address"
        }
      ],
      "name": "balanceOf",
      "outputs": [
        {
          "internalType": "uint256",
          "name": "",
          "type": "uint256"
        }
      ],
      "stateMutability": "view",
      "type": "function"
    },
    {
      "inputs": [],
      "name": "farmer",
      "outputs": [
        {
          "internalType": "address",
          "name": "",
          "type": "address"
        }
      ],
      "stateMutability": "view",
      "type": "function"
    },
    {
      "inputs": [
        {
          "internalType": "uint256",
          "name": "tokenId",
          "type": "uint256"
        }
      ],
      "name": "getApproved",
      "outputs": [
        {
          "internalType": "address",
          "name": "",
          "type": "address"
        }
      ],
      "stateMutability": "view",
      "type": "function"
    },
    {
      "inputs": [
        {
          "internalType": "address",
          "name": "baker",
          "type": "address"
        }
      ],
      "name": "getBakerOrders",
      "outputs": [
        {
          "internalType": "uint256[]",
          "name": "",
          "type": "uint256[]"
        }
      ],
      "stateMutability": "view",
      "type": "function"
    },
    {
      "inputs": [
        {
          "internalType": "uint256",
          "name": "orderId",
          "type": "uint256"
        }
      ],
      "name": "getInvoiceIdByOrderId",
      "outputs": [
        {
          "internalType": "uint256",
          "name": "",
          "type": "uint256"
        }
      ],
      "stateMutability": "view",
      "type": "function"
    },
    {
      "inputs": [
        {
          "internalType": "uint256",
          "name": "",
          "type": "uint256"
        }
      ],
      "name": "invoices",
      "outputs": [
        {
          "internalType": "uint256",
          "name": "invoiceId",
          "type": "uint256"
        },
        {
          "internalType": "uint256",
          "name": "orderId",
          "type": "uint256"
        },
        {
          "internalType": "uint256",
          "name": "quantity",
          "type": "uint256"
        },
        {
          "internalType": "uint256",
          "name": "price",
          "type": "uint256"
        },
        {
          "internalType": "bool",
          "name": "isAccepted",
          "type": "bool"
        }
      ],
      "stateMutability": "view",
      "type": "function"
    },
    {
      "inputs": [
        {
          "internalType": "address",
          "name": "owner",
          "type": "address"
        },
        {
          "internalType": "address",
          "name": "operator",
          "type": "address"
        }
      ],
      "name": "isApprovedForAll",
      "outputs": [
        {
          "internalType": "bool",
          "name": "",
          "type": "bool"
        }
      ],
      "stateMutability": "view",
      "type": "function"
    },
    {
      "inputs": [],
      "name": "name",
      "outputs": [
        {
          "internalType": "string",
          "name": "",
          "type": "string"
        }
      ],
      "stateMutability": "view",
      "type": "function"
    },
    {
      "inputs": [],
      "name": "nextInvoiceId",
      "outputs": [
        {
          "internalType": "uint256",
          "name": "",
          "type": "uint256"
        }
      ],
      "stateMutability": "view",
      "type": "function"
    },
    {
      "inputs": [],
      "name": "owner",
      "outputs": [
        {
          "internalType": "address",
          "name": "",
          "type": "address"
        }
      ],
      "stateMutability": "view",
      "type": "function"
    },
    {
      "inputs": [
        {
          "internalType": "uint256",
          "name": "tokenId",
          "type": "uint256"
        }
      ],
      "name": "ownerOf",
      "outputs": [
        {
          "internalType": "address",
          "name": "",
          "type": "address"
        }
      ],
      "stateMutability": "view",
      "type": "function"
    },
    {
      "inputs": [],
      "name": "renounceOwnership",
      "outputs": [],
      "stateMutability": "nonpayable",
      "type": "function"
    },
    {
      "inputs": [
        {
          "internalType": "address",
          "name": "from",
          "type": "address"
        },
        {
          "internalType": "address",
          "name": "to",
          "type": "address"
        },
        {
          "internalType": "uint256",
          "name": "tokenId",
          "type": "uint256"
        }
      ],
      "name": "safeTransferFrom",
      "outputs": [],
      "stateMutability": "nonpayable",
      "type": "function"
    },
    {
      "inputs": [
        {
          "internalType": "address",
          "name": "from",
          "type": "address"
        },
        {
          "internalType": "address",
          "name": "to",
          "type": "address"
        },
        {
          "internalType": "uint256",
          "name": "tokenId",
          "type": "uint256"
        },
        {
          "internalType": "bytes",
          "name": "data",
          "type": "bytes"
        }
      ],
      "name": "safeTransferFrom",
      "outputs": [],
      "stateMutability": "nonpayable",
      "type": "function"
    },
    {
      "inputs": [
        {
          "internalType": "address",
          "name": "operator",
          "type": "address"
        },
        {
          "internalType": "bool",
          "name": "approved",
          "type": "bool"
        }
      ],
      "name": "setApprovalForAll",
      "outputs": [],
      "stateMutability": "nonpayable",
      "type": "function"
    },
    {
      "inputs": [
        {
          "internalType": "address",
          "name": "baker",
          "type": "address"
        },
        {
          "internalType": "uint256",
          "name": "orderId",
          "type": "uint256"
        },
        {
          "internalType": "uint256",
          "name": "quantity",
          "type": "uint256"
        },
        {
          "internalType": "uint256",
          "name": "price",
          "type": "uint256"
        }
      ],
      "name": "shipWheat",
      "outputs": [
        {
          "internalType": "uint256",
          "name": "",
          "type": "uint256"
        }
      ],
      "stateMutability": "nonpayable",
      "type": "function"
    },
    {
      "inputs": [
        {
          "internalType": "bytes4",
          "name": "interfaceId",
          "type": "bytes4"
        }
      ],
      "name": "supportsInterface",
      "outputs": [
        {
          "internalType": "bool",
          "name": "",
          "type": "bool"
        }
      ],
      "stateMutability": "view",
      "type": "function"
    },
    {
      "inputs": [],
      "name": "symbol",
      "outputs": [
        {
          "internalType": "string",
          "name": "",
          "type": "string"
        }
      ],
      "stateMutability": "view",
      "type": "function"
    },
    {
      "inputs": [
        {
          "internalType": "uint256",
          "name": "tokenId",
          "type": "uint256"
        }
      ],
      "name": "tokenURI",
      "outputs": [
        {
          "internalType": "string",
          "name": "",
          "type": "string"
        }
      ],
      "stateMutability": "view",
      "type": "function"
    },
    {
      "inputs": [
        {
          "internalType": "address",
          "name": "from",
          "type": "address"
        },
        {
          "internalType": "address",
          "name": "to",
          "type": "address"
        },
        {
          "internalType": "uint256",
          "name": "tokenId",
          "type": "uint256"
        }
      ],
      "name": "transferFrom",
      "outputs": [],
      "stateMutability": "nonpayable",
      "type": "function"
    },
    {
      "inputs": [
        {
          "internalType": "address",
          "name": "newOwner",
          "type": "address"
        }
      ],
      "name": "transferOwnership",
      "outputs": [],
      "stateMutability": "nonpayable",
      "type": "function"
    }
  ],
  "bytecode": "0x60806040523480156200001157600080fd5b50336040518060400160405280600c81526020017f5768656174496e766f69636500000000000000000000000000000000000000008152506040518060400160405280600481526020017f57494e56000000000000000000000000000000000000000000000000000000008152508160009081620000909190620004bb565b508060019081620000a29190620004bb565b505050600073ffffffffffffffffffffffffffffffffffffffff168173ffffffffffffffffffffffffffffffffffffffff16036200011a5760006040517f1e4fbdf7000000000000000000000000000000000000000000000000000000008152600401620001119190620005e7565b60405180910390fd5b6200012b816200017b60201b60201c565b5033600860006101000a81548173ffffffffffffffffffffffffffffffffffffffff021916908373ffffffffffffffffffffffffffffffffffffffff160217905550600160078190555062000604565b6000600660009054906101000a900473ffffffffffffffffffffffffffffffffffffffff16905081600660006101000a81548173ffffffffffffffffffffffffffffffffffffffff021916908373ffffffffffffffffffffffffffffffffffffffff1602179055508173ffffffffffffffffffffffffffffffffffffffff168173ffffffffffffffffffffffffffffffffffffffff167f8be0079c531659141344cd1fd0a4f28419497f9722a3daafe3b4186f6b6457e060405160405180910390a35050565b600081519050919050565b7f4e487b7100000000000000000000000000000000000000000000000000000000600052604160045260246000fd5b7f4e487b7100000000000000000000000000000000000000000000000000000000600052602260045260246000fd5b60006002820490506001821680620002c357607f821691505b602082108103620002d957620002d86200027b565b5b50919050565b60008190508160005260206000209050919050565b60006020601f8301049050919050565b600082821b905092915050565b600060088302620003437fffffffffffffffffffffffffffffffffffffffffffffffffffffffffffffffff8262000304565b6200034f868362000304565b95508019841693508086168417925050509392505050565b6000819050919050565b6000819050919050565b60006200039c62000396620003908462000367565b62000371565b62000367565b9050919050565b6000819050919050565b620003b8836200037b565b620003d0620003c782620003a3565b84845462000311565b825550505050565b600090565b620003e7620003d8565b620003f4818484620003ad565b505050565b5b818110156200041c5762000410600082620003dd565b600181019050620003fa565b5050565b601f8211156200046b576200043581620002df565b6200044084620002f4565b8101602085101562000450578190505b620004686200045f85620002f4565b830182620003f9565b50505b505050565b600082821c905092915050565b6000620004906000198460080262000470565b1980831691505092915050565b6000620004ab83836200047d565b9150826002028217905092915050565b620004c68262000241565b67ffffffffffffffff811115620004e257620004e16200024c565b5b620004ee8254620002aa565b620004fb82828562000420565b600060209050601f8311600181146200053357600084156200051e578287015190505b6200052a85826200049d565b8655506200059a565b601f1984166200054386620002df565b60005b828110156200056d5784890151825560018201915060208501945060208101905062000546565b868310156200058d578489015162000589601f8916826200047d565b8355505b6001600288020188555050505b505050505050565b600073ffffffffffffffffffffffffffffffffffffffff82169050919050565b6000620005cf82620005a2565b9050919050565b620005e181620005c2565b82525050565b6000602082019050620005fe6000830184620005d6565b92915050565b612ac680620006146000396000f3fe608060405234801561001057600080fd5b506004361061014d5760003560e01c8063715018a6116100c3578063c87b56dd1161007c578063c87b56dd146103a0578063d811fcf0146103d0578063d94f994a146103ee578063e985e9c51461041e578063f2fde38b1461044e578063fead7ccc1461046a5761014d565b8063715018a6146103065780638da5cb5b1461031057806395d89b411461032e578063a22cb4651461034c578063b88d4fde14610368578063c4d81216146103845761014d565b806342842e0e1161011557806342842e0e146102085780634e6d1405146102245780635bf1eb59146102585780636352211e146102885780636ff2a953146102b857806370a08231146102d65761014d565b806301ffc9a71461015257806306fdde0314610182578063081812fc146101a0578063095ea7b3146101d057806323b872dd146101ec575b600080fd5b61016c60048036038101906101679190611ed1565b61049a565b6040516101799190611f19565b60405180910390f35b61018a61057c565b6040516101979190611fc4565b60405180910390f35b6101ba60048036038101906101b5919061201c565b61060e565b6040516101c7919061208a565b60405180910390f35b6101ea60048036038101906101e591906120d1565b61062a565b005b61020660048036038101906102019190612111565b610640565b005b610222600480360381019061021d9190612111565b610742565b005b61023e6004803603810190610239919061201c565b610762565b60405161024f959493929190612173565b60405180910390f35b610272600480360381019061026d919061201c565b6107a5565b60405161027f91906121c6565b60405180910390f35b6102a2600480360381019061029d919061201c565b61080a565b6040516102af919061208a565b60405180910390f35b6102c061081c565b6040516102cd91906121c6565b60405180910390f35b6102f060048036038101906102eb91906121e1565b610822565b6040516102fd91906121c6565b60405180910390f35b61030e6108dc565b005b6103186108f0565b604051610325919061208a565b60405180910390f35b61033661091a565b6040516103439190611fc4565b60405180910390f35b6103666004803603810190610361919061223a565b6109ac565b005b610382600480360381019061037d91906123af565b6109c2565b005b61039e6004803603810190610399919061201c565b6109df565b005b6103ba60048036038101906103b5919061201c565b610ba7565b6040516103c79190611fc4565b60405180910390f35b6103d8610c10565b6040516103e5919061208a565b60405180910390f35b61040860048036038101906104039190612432565b610c36565b60405161041591906121c6565b60405180910390f35b61043860048036038101906104339190612499565b610dc5565b6040516104459190611f19565b60405180910390f35b610468600480360381019061046391906121e1565b610e59565b005b610484600480360381019061047f91906121e1565b610edf565b6040516104919190612597565b60405180910390f35b60007f80ac58cd000000000000000000000000000000000000000000000000000000007bffffffffffffffffffffffffffffffffffffffffffffffffffffffff1916827bffffffffffffffffffffffffffffffffffffffffffffffffffffffff1916148061056557507f5b5e139f000000000000000000000000000000000000000000000000000000007bffffffffffffffffffffffffffffffffffffffffffffffffffffffff1916827bffffffffffffffffffffffffffffffffffffffffffffffffffffffff1916145b80610575575061057482610f76565b5b9050919050565b60606000805461058b906125e8565b80601f01602080910402602001604051908101604052809291908181526020018280546105b7906125e8565b80156106045780601f106105d957610100808354040283529160200191610604565b820191906000526020600020905b8154815290600101906020018083116105e757829003601f168201915b5050505050905090565b600061061982610fe0565b5061062382611068565b9050919050565b61063c82826106376110a5565b6110ad565b5050565b600073ffffffffffffffffffffffffffffffffffffffff168273ffffffffffffffffffffffffffffffffffffffff16036106b25760006040517f64a0ae920000000000000000000000000000000000000000000000000000000081526004016106a9919061208a565b60405180910390fd5b60006106c683836106c16110a5565b6110bf565b90508373ffffffffffffffffffffffffffffffffffffffff168173ffffffffffffffffffffffffffffffffffffffff161461073c578382826040517f64283d7b00000000000000000000000000000000000000000000000000000000815260040161073393929190612619565b60405180910390fd5b50505050565b61075d838383604051806020016040528060008152506109c2565b505050565b60096020528060005260406000206000915090508060000154908060010154908060020154908060030154908060040160009054906101000a900460ff16905085565b600080600b600084815260200190815260200160002054905060008103610801576040517f08c379a00000000000000000000000000000000000000000000000000000000081526004016107f8906126c2565b60405180910390fd5b80915050919050565b600061081582610fe0565b9050919050565b60075481565b60008073ffffffffffffffffffffffffffffffffffffffff168273ffffffffffffffffffffffffffffffffffffffff16036108955760006040517f89c62b6400000000000000000000000000000000000000000000000000000000815260040161088c919061208a565b60405180910390fd5b600360008373ffffffffffffffffffffffffffffffffffffffff1673ffffffffffffffffffffffffffffffffffffffff168152602001908152602001600020549050919050565b6108e46112d9565b6108ee6000611360565b565b6000600660009054906101000a900473ffffffffffffffffffffffffffffffffffffffff16905090565b606060018054610929906125e8565b80601f0160208091040260200160405190810160405280929190818152602001828054610955906125e8565b80156109a25780601f10610977576101008083540402835291602001916109a2565b820191906000526020600020905b81548152906001019060200180831161098557829003601f168201915b5050505050905090565b6109be6109b76110a5565b8383611426565b5050565b6109cd848484610640565b6109d984848484611595565b50505050565b60006009600083815260200190815260200160002090506000816000015403610a3d576040517f08c379a0000000000000000000000000000000000000000000000000000000008152600401610a349061272e565b60405180910390fd5b8060040160009054906101000a900460ff1615610a8f576040517f08c379a0000000000000000000000000000000000000000000000000000000008152600401610a869061279a565b60405180910390fd5b610ad7600a60003373ffffffffffffffffffffffffffffffffffffffff1673ffffffffffffffffffffffffffffffffffffffff1681526020019081526020016000208361174c565b610b16576040517f08c379a0000000000000000000000000000000000000000000000000000000008152600401610b0d90612806565b60405180910390fd5b60018160040160006101000a81548160ff021916908315150217905550610b5f600860009054906101000a900473ffffffffffffffffffffffffffffffffffffffff16836117ad565b3373ffffffffffffffffffffffffffffffffffffffff16827f03b15327bf8d566d9c98b0a3ccf9f61370efbd412224abe81744586e3c498d0a60405160405180910390a35050565b6060610bb282610fe0565b506000610bbd6118a6565b90506000815111610bdd5760405180602001604052806000815250610c08565b80610be7846118bd565b604051602001610bf8929190612862565b6040516020818303038152906040525b915050919050565b600860009054906101000a900473ffffffffffffffffffffffffffffffffffffffff1681565b6000610c406112d9565b600060076000815480929190610c55906128b5565b91905055905060006040518060a0016040528083815260200187815260200186815260200185815260200160001515815250905080600960008481526020019081526020016000206000820151816000015560208201518160010155604082015181600201556060820151816003015560808201518160040160006101000a81548160ff021916908315150217905550905050600a60008873ffffffffffffffffffffffffffffffffffffffff1673ffffffffffffffffffffffffffffffffffffffff16815260200190815260200160002082908060018154018082558091505060019003906000526020600020016000909190919091505581600b6000888152602001908152602001600020819055508673ffffffffffffffffffffffffffffffffffffffff1686837f55a028e1fe6453a2c864c54d4255706b7c50c30d8a98065ab7dca69c01cfc5938888604051610db09291906128fd565b60405180910390a48192505050949350505050565b6000600560008473ffffffffffffffffffffffffffffffffffffffff1673ffffffffffffffffffffffffffffffffffffffff16815260200190815260200160002060008373ffffffffffffffffffffffffffffffffffffffff1673ffffffffffffffffffffffffffffffffffffffff16815260200190815260200160002060009054906101000a900460ff16905092915050565b610e616112d9565b600073ffffffffffffffffffffffffffffffffffffffff168173ffffffffffffffffffffffffffffffffffffffff1603610ed35760006040517f1e4fbdf7000000000000000000000000000000000000000000000000000000008152600401610eca919061208a565b60405180910390fd5b610edc81611360565b50565b6060600a60008373ffffffffffffffffffffffffffffffffffffffff1673ffffffffffffffffffffffffffffffffffffffff168152602001908152602001600020805480602002602001604051908101604052809291908181526020018280548015610f6a57602002820191906000526020600020905b815481526020019060010190808311610f56575b50505050509050919050565b60007f01ffc9a7000000000000000000000000000000000000000000000000000000007bffffffffffffffffffffffffffffffffffffffffffffffffffffffff1916827bffffffffffffffffffffffffffffffffffffffffffffffffffffffff1916149050919050565b600080610fec8361198b565b9050600073ffffffffffffffffffffffffffffffffffffffff168173ffffffffffffffffffffffffffffffffffffffff160361105f57826040517f7e27328900000000000000000000000000000000000000000000000000000000815260040161105691906121c6565b60405180910390fd5b80915050919050565b60006004600083815260200190815260200160002060009054906101000a900473ffffffffffffffffffffffffffffffffffffffff169050919050565b600033905090565b6110ba83838360016119c8565b505050565b6000806110cb8461198b565b9050600073ffffffffffffffffffffffffffffffffffffffff168373ffffffffffffffffffffffffffffffffffffffff161461110d5761110c818486611b8d565b5b600073ffffffffffffffffffffffffffffffffffffffff168173ffffffffffffffffffffffffffffffffffffffff161461119e5761114f6000856000806119c8565b6001600360008373ffffffffffffffffffffffffffffffffffffffff1673ffffffffffffffffffffffffffffffffffffffff168152602001908152602001600020600082825403925050819055505b600073ffffffffffffffffffffffffffffffffffffffff168573ffffffffffffffffffffffffffffffffffffffff1614611221576001600360008773ffffffffffffffffffffffffffffffffffffffff1673ffffffffffffffffffffffffffffffffffffffff168152602001908152602001600020600082825401925050819055505b846002600086815260200190815260200160002060006101000a81548173ffffffffffffffffffffffffffffffffffffffff021916908373ffffffffffffffffffffffffffffffffffffffff160217905550838573ffffffffffffffffffffffffffffffffffffffff168273ffffffffffffffffffffffffffffffffffffffff167fddf252ad1be2c89b69c2b068fc378daa952ba7f163c4a11628f55a4df523b3ef60405160405180910390a4809150509392505050565b6112e16110a5565b73ffffffffffffffffffffffffffffffffffffffff166112ff6108f0565b73ffffffffffffffffffffffffffffffffffffffff161461135e576113226110a5565b6040517f118cdaa7000000000000000000000000000000000000000000000000000000008152600401611355919061208a565b60405180910390fd5b565b6000600660009054906101000a900473ffffffffffffffffffffffffffffffffffffffff16905081600660006101000a81548173ffffffffffffffffffffffffffffffffffffffff021916908373ffffffffffffffffffffffffffffffffffffffff1602179055508173ffffffffffffffffffffffffffffffffffffffff168173ffffffffffffffffffffffffffffffffffffffff167f8be0079c531659141344cd1fd0a4f28419497f9722a3daafe3b4186f6b6457e060405160405180910390a35050565b600073ffffffffffffffffffffffffffffffffffffffff168273ffffffffffffffffffffffffffffffffffffffff160361149757816040517f5b08ba1800000000000000000000000000000000000000000000000000000000815260040161148e919061208a565b60405180910390fd5b80600560008573ffffffffffffffffffffffffffffffffffffffff1673ffffffffffffffffffffffffffffffffffffffff16815260200190815260200160002060008473ffffffffffffffffffffffffffffffffffffffff1673ffffffffffffffffffffffffffffffffffffffff16815260200190815260200160002060006101000a81548160ff0219169083151502179055508173ffffffffffffffffffffffffffffffffffffffff168373ffffffffffffffffffffffffffffffffffffffff167f17307eab39ab6107e8899845ad3d59bd9653f200f220920489ca2b5937696c31836040516115889190611f19565b60405180910390a3505050565b60008373ffffffffffffffffffffffffffffffffffffffff163b1115611746578273ffffffffffffffffffffffffffffffffffffffff1663150b7a026115d96110a5565b8685856040518563ffffffff1660e01b81526004016115fb949392919061297b565b6020604051808303816000875af192505050801561163757506040513d601f19601f8201168201806040525081019061163491906129dc565b60015b6116bb573d8060008114611667576040519150601f19603f3d011682016040523d82523d6000602084013e61166c565b606091505b5060008151036116b357836040517f64a0ae920000000000000000000000000000000000000000000000000000000081526004016116aa919061208a565b60405180910390fd5b805181602001fd5b63150b7a0260e01b7bffffffffffffffffffffffffffffffffffffffffffffffffffffffff1916817bffffffffffffffffffffffffffffffffffffffffffffffffffffffff19161461174457836040517f64a0ae9200000000000000000000000000000000000000000000000000000000815260040161173b919061208a565b60405180910390fd5b505b50505050565b600080600090505b83805490508110156117a1578284828154811061177457611773612a09565b5b90600052602060002001540361178e5760019150506117a7565b8080611799906128b5565b915050611754565b50600090505b92915050565b600073ffffffffffffffffffffffffffffffffffffffff168273ffffffffffffffffffffffffffffffffffffffff160361181f5760006040517f64a0ae92000000000000000000000000000000000000000000000000000000008152600401611816919061208a565b60405180910390fd5b600061182d838360006110bf565b9050600073ffffffffffffffffffffffffffffffffffffffff168173ffffffffffffffffffffffffffffffffffffffff16146118a15760006040517f73c6ac6e000000000000000000000000000000000000000000000000000000008152600401611898919061208a565b60405180910390fd5b505050565b606060405180602001604052806000815250905090565b6060600060016118cc84611c51565b01905060008167ffffffffffffffff8111156118eb576118ea612284565b5b6040519080825280601f01601f19166020018201604052801561191d5781602001600182028036833780820191505090505b509050600082602001820190505b600115611980578080600190039150507f3031323334353637383961626364656600000000000000000000000000000000600a86061a8153600a858161197457611973612a38565b5b0494506000850361192b575b819350505050919050565b60006002600083815260200190815260200160002060009054906101000a900473ffffffffffffffffffffffffffffffffffffffff169050919050565b8080611a015750600073ffffffffffffffffffffffffffffffffffffffff168273ffffffffffffffffffffffffffffffffffffffff1614155b15611b35576000611a1184610fe0565b9050600073ffffffffffffffffffffffffffffffffffffffff168373ffffffffffffffffffffffffffffffffffffffff1614158015611a7c57508273ffffffffffffffffffffffffffffffffffffffff168173ffffffffffffffffffffffffffffffffffffffff1614155b8015611a8f5750611a8d8184610dc5565b155b15611ad157826040517fa9fbf51f000000000000000000000000000000000000000000000000000000008152600401611ac8919061208a565b60405180910390fd5b8115611b3357838573ffffffffffffffffffffffffffffffffffffffff168273ffffffffffffffffffffffffffffffffffffffff167f8c5be1e5ebec7d5bd14f71427d1e84f3dd0314c0f7b2291e5b200ac8c7c3b92560405160405180910390a45b505b836004600085815260200190815260200160002060006101000a81548173ffffffffffffffffffffffffffffffffffffffff021916908373ffffffffffffffffffffffffffffffffffffffff16021790555050505050565b611b98838383611da4565b611c4c57600073ffffffffffffffffffffffffffffffffffffffff168373ffffffffffffffffffffffffffffffffffffffff1603611c0d57806040517f7e273289000000000000000000000000000000000000000000000000000000008152600401611c0491906121c6565b60405180910390fd5b81816040517f177e802f000000000000000000000000000000000000000000000000000000008152600401611c43929190612a67565b60405180910390fd5b505050565b600080600090507a184f03e93ff9f4daa797ed6e38ed64bf6a1f0100000000000000008310611caf577a184f03e93ff9f4daa797ed6e38ed64bf6a1f0100000000000000008381611ca557611ca4612a38565b5b0492506040810190505b6d04ee2d6d415b85acef81000000008310611cec576d04ee2d6d415b85acef81000000008381611ce257611ce1612a38565b5b0492506020810190505b662386f26fc100008310611d1b57662386f26fc100008381611d1157611d10612a38565b5b0492506010810190505b6305f5e1008310611d44576305f5e1008381611d3a57611d39612a38565b5b0492506008810190505b6127108310611d69576127108381611d5f57611d5e612a38565b5b0492506004810190505b60648310611d8c5760648381611d8257611d81612a38565b5b0492506002810190505b600a8310611d9b576001810190505b80915050919050565b60008073ffffffffffffffffffffffffffffffffffffffff168373ffffffffffffffffffffffffffffffffffffffff1614158015611e5c57508273ffffffffffffffffffffffffffffffffffffffff168473ffffffffffffffffffffffffffffffffffffffff161480611e1d5750611e1c8484610dc5565b5b80611e5b57508273ffffffffffffffffffffffffffffffffffffffff16611e4383611068565b73ffffffffffffffffffffffffffffffffffffffff16145b5b90509392505050565b6000604051905090565b600080fd5b600080fd5b60007fffffffff0000000000000000000000000000000000000000000000000000000082169050919050565b611eae81611e79565b8114611eb957600080fd5b50565b600081359050611ecb81611ea5565b92915050565b600060208284031215611ee757611ee6611e6f565b5b6000611ef584828501611ebc565b91505092915050565b60008115159050919050565b611f1381611efe565b82525050565b6000602082019050611f2e6000830184611f0a565b92915050565b600081519050919050565b600082825260208201905092915050565b60005b83811015611f6e578082015181840152602081019050611f53565b60008484015250505050565b6000601f19601f8301169050919050565b6000611f9682611f34565b611fa08185611f3f565b9350611fb0818560208601611f50565b611fb981611f7a565b840191505092915050565b60006020820190508181036000830152611fde8184611f8b565b905092915050565b6000819050919050565b611ff981611fe6565b811461200457600080fd5b50565b60008135905061201681611ff0565b92915050565b60006020828403121561203257612031611e6f565b5b600061204084828501612007565b91505092915050565b600073ffffffffffffffffffffffffffffffffffffffff82169050919050565b600061207482612049565b9050919050565b61208481612069565b82525050565b600060208201905061209f600083018461207b565b92915050565b6120ae81612069565b81146120b957600080fd5b50565b6000813590506120cb816120a5565b92915050565b600080604083850312156120e8576120e7611e6f565b5b60006120f6858286016120bc565b925050602061210785828601612007565b9150509250929050565b60008060006060848603121561212a57612129611e6f565b5b6000612138868287016120bc565b9350506020612149868287016120bc565b925050604061215a86828701612007565b9150509250925092565b61216d81611fe6565b82525050565b600060a0820190506121886000830188612164565b6121956020830187612164565b6121a26040830186612164565b6121af6060830185612164565b6121bc6080830184611f0a565b9695505050505050565b60006020820190506121db6000830184612164565b92915050565b6000602082840312156121f7576121f6611e6f565b5b6000612205848285016120bc565b91505092915050565b61221781611efe565b811461222257600080fd5b50565b6000813590506122348161220e565b92915050565b6000806040838503121561225157612250611e6f565b5b600061225f858286016120bc565b925050602061227085828601612225565b9150509250929050565b600080fd5b600080fd5b7f4e487b7100000000000000000000000000000000000000000000000000000000600052604160045260246000fd5b6122bc82611f7a565b810181811067ffffffffffffffff821117156122db576122da612284565b5b80604052505050565b60006122ee611e65565b90506122fa82826122b3565b919050565b600067ffffffffffffffff82111561231a57612319612284565b5b61232382611f7a565b9050602081019050919050565b82818337600083830152505050565b600061235261234d846122ff565b6122e4565b90508281526020810184848401111561236e5761236d61227f565b5b612379848285612330565b509392505050565b600082601f8301126123965761239561227a565b5b81356123a684826020860161233f565b91505092915050565b600080600080608085870312156123c9576123c8611e6f565b5b60006123d7878288016120bc565b94505060206123e8878288016120bc565b93505060406123f987828801612007565b925050606085013567ffffffffffffffff81111561241a57612419611e74565b5b61242687828801612381565b91505092959194509250565b6000806000806080858703121561244c5761244b611e6f565b5b600061245a878288016120bc565b945050602061246b87828801612007565b935050604061247c87828801612007565b925050606061248d87828801612007565b91505092959194509250565b600080604083850312156124b0576124af611e6f565b5b60006124be858286016120bc565b92505060206124cf858286016120bc565b9150509250929050565b600081519050919050565b600082825260208201905092915050565b6000819050602082019050919050565b61250e81611fe6565b82525050565b60006125208383612505565b60208301905092915050565b6000602082019050919050565b6000612544826124d9565b61254e81856124e4565b9350612559836124f5565b8060005b8381101561258a5781516125718882612514565b975061257c8361252c565b92505060018101905061255d565b5085935050505092915050565b600060208201905081810360008301526125b18184612539565b905092915050565b7f4e487b7100000000000000000000000000000000000000000000000000000000600052602260045260246000fd5b6000600282049050600182168061260057607f821691505b602082108103612613576126126125b9565b5b50919050565b600060608201905061262e600083018661207b565b61263b6020830185612164565b612648604083018461207b565b949350505050565b7f496e766f69636520666f722074686973206f7264657220494420646f6573206e60008201527f6f74206578697374000000000000000000000000000000000000000000000000602082015250565b60006126ac602883611f3f565b91506126b782612650565b604082019050919050565b600060208201905081810360008301526126db8161269f565b9050919050565b7f4f7264657220646f6573206e6f74206578697374000000000000000000000000600082015250565b6000612718601483611f3f565b9150612723826126e2565b602082019050919050565b600060208201905081810360008301526127478161270b565b9050919050565b7f4f7264657220616c726561647920616363657074656400000000000000000000600082015250565b6000612784601683611f3f565b915061278f8261274e565b602082019050919050565b600060208201905081810360008301526127b381612777565b9050919050565b7f556e617574686f72697a65642062616b65720000000000000000000000000000600082015250565b60006127f0601283611f3f565b91506127fb826127ba565b602082019050919050565b6000602082019050818103600083015261281f816127e3565b9050919050565b600081905092915050565b600061283c82611f34565b6128468185612826565b9350612856818560208601611f50565b80840191505092915050565b600061286e8285612831565b915061287a8284612831565b91508190509392505050565b7f4e487b7100000000000000000000000000000000000000000000000000000000600052601160045260246000fd5b60006128c082611fe6565b91507fffffffffffffffffffffffffffffffffffffffffffffffffffffffffffffffff82036128f2576128f1612886565b5b600182019050919050565b60006040820190506129126000830185612164565b61291f6020830184612164565b9392505050565b600081519050919050565b600082825260208201905092915050565b600061294d82612926565b6129578185612931565b9350612967818560208601611f50565b61297081611f7a565b840191505092915050565b6000608082019050612990600083018761207b565b61299d602083018661207b565b6129aa6040830185612164565b81810360608301526129bc8184612942565b905095945050505050565b6000815190506129d681611ea5565b92915050565b6000602082840312156129f2576129f1611e6f565b5b6000612a00848285016129c7565b91505092915050565b7f4e487b7100000000000000000000000000000000000000000000000000000000600052603260045260246000fd5b7f4e487b7100000000000000000000000000000000000000000000000000000000600052601260045260246000fd5b6000604082019050612a7c600083018561207b565b612a896020830184612164565b939250505056fea2646970667358221220b2f2d25b2d9dcb3000f572da9c8bfe237339e2af877a32c3e7637cc3ba0b3c6864736f6c63430008140033",
  "linkReferences": {},
  "deployedLinkReferences": {}
}